:100000006F00A07213000000130000001300000036
:100010001300000013000000130000001300000094
:100020001300000013000000130000001300000084
:08003000130000007300100032
:1000380000000000000000006002000064020000F0
:100048000000000070060000000000000000000032
:1000580072060000740600000000000000000000A6
:10006800760600000000000078060000000000008E
:100078007A0600007C0600007E060000800600006C
:10008800820600008406000086060000880600003C
:100098008A0600008C0600008E060000900600000C
:1000A80092060000940600009606000098060000DC
:1000B8009A0600009C0600009E060000A0060000AC
:1000C800A2060000A4060000A6060000A80600007C
:1000D800AA060000AC060000AE060000B00600004C
:1000E800B2060000B4060000B6060000B80600001C
:1000F800BA060000BC060000BE060000C0060000EC
:10010800C20600002405000074100000920E0000D2
:10011800CA060000CC060000CE060000D00600008B
:10012800D2060000D4060000D6060000D80600005B
:10013800DA060000DC060000DE060000E00600002B
:10014800E2060000E4060000E6060000E8060000FB
:10015800EA060000EC060000EE060000F0060000CB
:10016800F2060000F4060000F6060000F80600009B
:10017800FA060000FC060000FE060000000700006A
:100188000207000004070000060700000807000037
:100198000A0700000C0700000E0700001007000007
:1001A80012070000140700001607000018070000D7
:1001B8001A0700001C0700001E07000020070000A7
:1001C8002207000024070000260700002807000077
:1001D8000000000000000000000000000000000017
:1001E8000000000000000000000000000000000007
:0801F8000000000000000000FF
:10020000397101436EC619A0397141536AC866CA73
:1002100062CC5ECE19A0397101535AD056D252D455
:100220004ED64AD826DA22DC06DE330161408282CD
:1002300041114AC026C222C406C68282B24D410183
:10024000024D924C224CB24B4101024B924A224A3F
:10025000B2494101024992442244B24041018280A4
:100260007300203001A0EFF2BFFC0945012D1305FA
:1002700000097164C52E13050420292A13050420E2
:10028000552213050420EF00B035EF003059EF0080
:10029000704513058002EF00904801A0B717024097
:1002A0009843B706FFF841111367170098C3D84366
:1002B00037060200758FD8C39843B706F7FEFD16C0
:1002C000758F98C39843B706FCFFFD16758F98C3CA
:1002D000D843B70681FFFD16758FD8C39843B7067C
:1002E00000ECFD16758F98C33707FF0098C723A64B
:1002F000070202C402C69843C166558F98C3B71659
:10030000024005679C42F18F3EC6A24785073EC466
:10031000B24781E7A247E397E7FEB71702409C4345
:100320001397E7006356070685473EC63247854761
:10033000631EF704B7170240D843B706C1FFFD1686
:10034000D8C3D843D8C3D84313670740D8C3D843CA
:10035000758FD8C3D843C166558FD8C39843B706A5
:100360000001558F98C3984393166700E3DD06FE9E
:10037000D843B7160240719BD8C3D84313672700F0
:10038000D8C32147DC42B18BE39EE7FE4101828066
:1003900002C669BFEFF2DFE97971AA84854511458C
:1003A000092785451145F52D85451165DD2D9307F7
:1003B0000020FC8237140140E1473ECE4C088D47B7
:1003C000130504803ECCFD2693070040FC824C08B8
:1003D0009147130504803ECE37440140E12E0C10B6
:1003E000B7070C001305048026D03ED402D2231692
:1003F0000102EF003007930750137C8685475C8726
:10040000680085473EC8B529054613050480930555
:100410005052EF003012854513050480EF00301074
:1004200045610DBDEFF2DFE079712A898545370519
:100430000200792585451145AD2537140140E14776
:100440008D443ECE4C08914713050480FC8226CC97
:100450009526930780043ECE4C08A14713050480DF
:10046000FC823744004026CCB126B7070C000C10A4
:10047000130504403ED44AD002D223160102EF00F5
:10048000607E05469305505213050440EF00900A24
:100490000545ED2685473EC86800930760337C8696
:1004A0004487C526854513050440EF005007456184
:1004B00055B30D71232A91122324C1142326D1147C
:1004C0002E86B402AA84930580122800232C811260
:1004D000232E11122328E114232AF114232C0115B1
:1004E000232E111536C22000EF00D0431C2089EBCB
:1004F0008320C11303248113832441133561828037
:10050000930500042685EF00F00705048345F4FFFA
:100510002685EF009005930500042685EF00F00581
:100520007DD9E9B7011122CE3744014093055052DD
:100530001305048026CC4ACA4EC852C656C4EF00E2
:10054000300521C913050480EF00B00293871181A3
:10055000942305471375F50F138911816384E6040D
:1005600099C68947638DF6042300090019A89306EC
:10057000F00F6318D5007D562384C1822388E18063
:1005800098A3374501409305505213050580EF00AD
:10059000F0037244E2445249C249324AA24A056118
:1005A000730020309306F5FF93F6F60F0947636555
:1005B000D700A384A182D9B723800700D9B79307B6
:1005C000D00D631CF508938781821307D0FDB725F2
:1005D0000000B8A38D4713050480938505B52388D3
:1005E000F1808149F93593848182138A0181B72A88
:1005F00000001304048083470A0063CDF902B72585
:10060000000037440140938505B713050480553534
:100610009C3009476389E7020D47638BE702054772
:10062000E394E7F4B7250000938545B713050480EC
:1006300049351DBFB3873401902393858AB622853F
:100640008D3D85094DBFB72500009385C5B8F9BF1D
:10065000B7250000938545BAD1BFB7250000938523
:10066000C5BBE9B70D812399A180828001A001A0BB
:1006700001A001A001A001A001A001A001A001A072
:1006800001A001A001A001A001A001A001A001A062
:1006900001A001A001A001A001A001A001A001A052
:1006A00001A001A001A001A001A001A001A001A042
:1006B00001A001A001A001A001A001A001A001A032
:1006C00001A001A001A001A001A001A001A001A022
:1006D00001A001A001A001A001A001A001A001A012
:1006E00001A001A001A001A001A001A001A001A002
:1006F00001A001A001A001A001A001A001A001A0F2
:1007000001A001A001A001A001A001A001A001A0E1
:1007100001A001A001A001A001A001A001A001A0D1
:1007200001A001A001A001A001A0970100209381D8
:100730006114170101201301E18C17150000130546
:10074000E54E970500209385E58B1386018163FABA
:10075000C5008322050023A0550011059105E3EA99
:10076000C5FE138501819385C1B26377B50023204F
:1007700005001105E36DB5FEFD42739002BCAD426C
:1007800073904280B76200009382820873A00230A7
:10079000970200009382828A93E232007390523073
:1007A000EFF0DFAF97020000938222AC7390123417
:1007B000730020309C4513F7070113F8F70001C7B9
:1007C000D8413368E8008E2113F7F50F39C318417B
:1007D0008146854E3D4F930F800293028004214E47
:1007E0003396DE00B3F8C500631116039398260014
:1007F00033131F011343F3FF3377E300B3181801DA
:1008000033E7E800639FF70550C98506E39AC6FD04
:1008100018C11307F00F6375B70454412146854E84
:100820003D4F930F800293028004414EB398CE0057
:1008300033F715016392E8021317260001173313EB
:10084000EF001343F3FFB376D3003317E800D98EDC
:10085000639DF701232A15010506E319C6FD54C15E
:100860008280E39457FA10C94DB7E39757FE2328C7
:100870001501DDB70CC982804CC9828023AAA180F2
:100880008280938741819443182181E63C2192071D
:1008900021A894430546639FC6023C21103192076C
:1008A0006314D60093E707F8B7E600E093F7F70F75
:1008B000BA962380F6408546935757003397E60053
:1008C0005441A5C2938707048A07B7E600E0B697AC
:1008D00098C382808C4389466391D50214313C21B0
:1008E0006365D6008A06B6975DB79386E6038A06E7
:1008F000B69793F7F70F920775B790438D46631C31
:10090000D60014313C216364D6008606E9BF938685
:10091000C6078606F1BF94439147E39EF6F81C3163
:10092000BDB7938707064DB7371702405C43914622
:10093000B18B6385D700A1466384D706B7177A00C9
:10094000938707201CC1371602405C4237070020FE
:10095000130707009183BD8BBA9794231C41B3D72B
:10096000D7005CC15442A1829D8ABA969422B3D624
:10097000D70014C55442AD829D8A36971823B3D749
:10098000E7005CC55842398393763700370700206B
:100990001307070736971823B3D7E7021CC98280CD
:1009A0005C435843C166C983758FB7F6FF1F83A6A2
:1009B000C670BD8B89071396160163480600C546AD
:1009C00001466392D702C94739A88946638FD70287
:1009D000BD46638ED702C146638ED702C546014627
:1009E0006393D700C1471DEF3747024003270780B5
:1009F000418B05C737177A0013070720B307F702A3
:100A00001CC131D21C41858335BF01466DBF0546EF
:100A1000B547D1BF0146BD47F9B737173D001307AA
:100A20000790E9BFB7150240D8559316F700D8557F
:100A300063DF060411833D8B9306170037177A0096
:100A4000130707203357D70218C1D455A182BD8A96
:100A50008DE295463307D702058318C13717024048
:100A6000585714413D8B050733D7E60218C118418A
:100A700071B785456394B600E546E9BFBD45639609
:100A8000B600D1463387E602C9BF8906E5BF3D8B74
:100A90009306170037177A00130707203357D7023A
:100AA000F1B799C5371702401C4F5D8D08CF828082
:100AB000B7170240984F1345F5FF798D88CF828094
:100AC00099C5371702405C4F5D8D48CF8280B717BC
:100AD0000240D84F1345F5FF798DC8CF82801E2183
:100AE00037370140930607C0C207C1836300D504AE
:100AF000B7060040630CD502938606406308D50212
:100B0000B7160040138606806302C502938606C0AE
:100B1000630ED50013070740630AE500375701400D
:100B2000930607C06304D5006316E500BA2193F766
:100B3000F7F8D98F37170040630CE500130707401B
:100B40006308E50093F7F7CFFA21C207C183D98F75
:100B50001EA1DE215EB59E211EB5B7370140138769
:100B600007C0630EE50093870740630AF500B75797
:100B70000140138707C06304E5006314F5009C255A
:100B80001EB985475EA982801E31922103D82500B7
:100B9000C207C183F99BC207C1831EB11E31562112
:100BA0001A2DC207C183420741831377C7F8518FBB
:100BB0009225F59BC20633660601D18F3736014078
:100BC000130806C0C182630E050113060640630ABE
:100BD000C50037560140130806C0630405016310C1
:100BE000C502B225DD9B03D8E500D18FD221ED9B54
:100BF00093F6F6CFD18FD22533660601D18E56A15A
:100C00001AADFA215AB91EB182801E2189C593E717
:100C100017001EA18280C207C183F99BC207C1834E
:100C2000CDBF8357450491C52167D98F2312F504A1
:100C30008280C607C583DDBF1E2189C593E70708EB
:100C40001EA18280C207C18393F7F7F7C207C18351
:100C5000C5BF1E2DC207C183DD9BDD8D0EAD828019
:100C60004EB98280EFF2CFDC1629F577FD17F58FAC
:100C7000F621DA257971D58F1EA95625FD77938740
:100C8000379FF58FD6212A842EC6D58F9625D58FEE
:100C9000B625D58F5EA55E29C207C18393F7F7CF2E
:100CA000D98F5EA968084931B7470140938707800B
:100CB000B245631AF404A25756246547B387E70286
:100CC000C206C186984163D2060406075224420632
:100CD000B3D7E702130740064186B3D6E702B3F75E
:100CE000E7029206635506028E0793872703B3D760
:100CF000E70213F77700B367D700C207C1831EA4CA
:100D000045616FF02FD5925745BF0A07C1B79207CB
:100D100093872703B3D7E702BD8BD58FF9BF91C562
:100D20005E250967D98F5EA582805A25F977FD1760
:100D3000F98FD5BF13F7F50F85471583B395B70026
:100D40006319F7009307C500984301CED98D8CC372
:100D50008280894693074501E318D7FE9307050172
:100D6000E5B793C5F5FFF98DDDB793F5F51F4EA1F6
:100D700082804A211375F51F82800A216D8D3335DB
:100D8000A000828093C5F5FFC205C1810EA18280BB
:100D900013F7F50F85461583B397B6006311D70295
:100DA0005A25F98F1A2101454207418381CB054518
:100DB000A181B315B5006D8F3335E000828089467F
:100DC0006314D7001A29F1BF5A29E1BFA1818547D1
:100DD000B397B70093C7F7FFC207C1831EA18280F4
:100DE000EFF20FC579712A89854537050400C939A5
:100DF000854521457D3137140140E1473ECE8D4484
:100E0000930700404C08130504C0FC8226CC5D32D9
:100E1000930780043ECE8567938707804C081305AF
:100E200004C0FC823754004026CC6932B7070C005E
:100E30000C10130504803ED44AD002D223160102BE
:100E4000153505469305505213050480E5350945CF
:100E5000353485473EC8930770237C8668008947F0
:100E60005C870534854513050480553D45616FF069
:100E70006FBEEFF2EFBBAE862A86B725000037556E
:100E80000040938585BD13050580EFF08FE26FF07C
:100E90006FBC411122C637540040930550521305D0
:100EA0000480FD3505CD13050480E1351375F50F7C
:100EB0009307100A631DF500138441800C20372529
:100EC0000000130545BE75371C2085071CA037554B
:100ED00000409305505213050580CD3D3244410139
:100EE00073002030EFF2CFB44111854513050002A5
:100EF0004D3EC1473EC637150140E1477C824C005C
:100F00008D47130505403EC4EFF0DF8A9165938558
:100F1000058413054006892841016FF0AFB3EFF255
:100F20002FB1131405014180C145B7140140634F2F
:100F3000050013850440EFF0FF9313850440A1459D
:100F4000EFF09F932285C9206FF0CFB01385044046
:100F5000EFF09F9213850440A145EFF0BF91330558
:100F6000804042054181C5B7EFF28FACAA84056588
:100F700079712E8413054580854502CA02CC02CEC4
:100F800002D002D202D402D602C402C62318010043
:100F9000093E93070010FC8237150140E1473ECE21
:100FA0004C088D47130505807D143ECCEFF09F80E3
:100FB0006084373401402C00130504C0FD1464869E
:100FC0002317010023150100193EC1679387070607
:100FD0000C10130504C03ED0231301022314010298
:100FE0006536130504C085452D39130504C08145B8
:100FF0008D31130504C0854581318545130504C035
:10100000293145616FF00FA5EFF28FA2AA85373520
:101010000140130505C0A9316FF0CFA3EFF24FA136
:101020004111854513050002AD3C854513050002BD
:101030008D3C8567371401407C82C1473EC64C0019
:101040008D47130504403EC4EFF0CFF689674C008E
:10105000130504407C82EFF0EFF51305044085652D
:10106000EFF05F81896513050440EFF0BF80410117
:101070006FF04F9E411122C63744004093055052F5
:1010800013050440313315CD0357444003D6818105
:101090009306F01F1377F70F9387818163F4C600DF
:1010A000239007009623374500409305505213863E
:1010B000160092A393878192B6971305054098A3D3
:1010C000313332444101730020301971A2DC86DED5
:1010D000A6DA3284635B06009307B0081CC17D5515
:1010E000F6506654D6540961828036869306802075
:1010F0002EC42ECCF482814519C09305F4FFFD5710
:101100002EC82ECEBA862C00FC83AA841922FD5745
:101110006355F5009307B0089CC079D0A24723809F
:1011200007007DBF938781803687B2862E86AA8589
:10113000884361BF01114AC803A9850022CC52C46B
:101140005AC006CE26CA4EC656C22E84328B368A66
:1011500063E82609DE2513F7074849C304408C4994
:101160005848AA8AB389B4408D44B384E40209473D
:10117000B3C4E402138716004E9763F3E400BA8405
:1011800093F70740ADCFA6855685EF0090042A89D6
:101190001DE1B14723A0FA005E247D5593E70704C3
:1011A0005EA4F2406244D2444249B249224A924A81
:1011B000024B056182800C484E86B52D5E2493F764
:1011C000F7B793E707085EA42328240144C84E9983
:1011D000B38434412320240104C4528963732A0157
:1011E000528908404A86DA8501271C440145B387A5
:1011F00027411CC41C403E99232024015DB726864C
:101200005685EF00F0092A8961F10C4856850527BB
:1012100049B7DE25717126D34AD14ECF06D722D5E4
:1012200052CD56CB5AC95EC762C566C393F707084D
:10123000AA892E89B284B1C39C49A1E39305000415
:1012400036C6412F2320A9002328A900B24615E164
:10125000B14723A0F9007D55BA502A549A540A592F
:10126000FA496A4ADA4A4A4BBA4B2A4C9A4C4D61BF
:10127000828093070004232AF90093070002A30C3D
:10128000F1029307000302DA230DF10236CE930B2D
:101290005002971A0000938AAA95054C294B268480
:1012A0001C2099C363977709B30C9440638D0C009D
:1012B000E6862686CA854E85B53DFD576308F51836
:1012C000D256E69636DA1C2063820718FD5793043F
:1012D000140002D002D63ED202D4A301010682DC61
:1012E0008C2015465685252B13841400825721E542
:1012F00013F7070109C713070002A301E10613F75B
:10130000870009C71307B002A301E1069420130761
:10131000A002638AE602B257268481462546182039
:1013200093051400130707FD6372E6068DC63ED6CB
:101330001DA00504B5B7330555413315AC00C98F61
:101340003ED0A28471BF724793064700184336CE41
:10135000634707023AD618209307E002631DF7049B
:1013600018309307A002631BF702F24709041387A2
:1013700047009C433ACE63C107023ED22DA83307F3
:10138000E04093E727003AD63ED0F1B7B387670332
:1013900085462E84BA9761B7FD57C5B7050402D2BA
:1013A000814681472546182093051400130707FD41
:1013B0006374E606F9F20C200D46171500001305BC
:1013C000A583B12911CD971700009387E7821D8D62
:1013D00093070004B397A700025505045D8D2AD03A
:1013E0000C201946171500001305458193041400BD
:1013F000230CB1022D2125C597F7FFFF938787C0E6
:1014000095E70257F2471377071009CF91073ECEB1
:10141000D257D2973EDA61B5B387670385462E84EB
:10142000BA9751B79D07E19BA107D5B778089706F2
:101430000000938666D04A860C104E859700000007
:10144000E7000000FD572A8AE314F5FC8357C90022
:101450007D5593F70704E39107E05255F5BB7808F3
:1014600097060000938646CD4A860C104E85012AC9
:10147000D1BF797156CA9C49BA8A984522D426D2DE
:101480004ECE52CC06D64AD05AC85EC6AA892E8401
:10149000B284368A63D3E700BA879CC0034734041A
:1014A00019C385079CC01C4093F7070281C79C4065
:1014B00089079CC00329040013796900631A090095
:1014C000130B9401FD5B5C449840998F634CF904C5
:1014D0001C408346340493F70702B336D000A5EBD3
:1014E00013063404D2854E85829AFD576303F504B2
:1014F0001C4011469840998B544481446397C7001F
:10150000B384E64063D3040081441C441848635408
:10151000F700998FBE94014969047D5B63982405A7
:10152000014509A885465A86D2854E85829A631E52
:1015300075017D55B250225492540259F249624AC3
:10154000D24A424BB24B456182800509ADBF330799
:10155000D40013060003A301C70403475404938770
:101560001600A2978906A381E7049DBF85462286BF
:10157000D2854E85829AE30E65FB050945B77971E0
:1015800022D426D24AD04ECE06D652CC56CA5AC8FB
:10159000B689942D930790063289AA842E841386E7
:1015A0003504638DF60263E2D706930780056385F1
:1015B000F61863EDD700638D062093073004638E21
:1015C000F60A930A24042301D404C9A09307300621
:1015D0006385F60A93074006E395F6FE1C40084330
:1015E00093F6070893054500C5C61C410CC363D894
:1015F00007001307D002B307F040A301E4049706E5
:10160000000093862660294765A893070007638139
:10161000F61663E5D7029307E0066388F61893078A
:10162000F006E390F6FA0C401C4313F80508138506
:1016300047006307080608C39C4385A89307500723
:10164000E383F6FE930780076388F612930730075B
:10165000E399F6F61C43D04181459386470014C3B5
:1016600083AA07005685652A01C53305554148C040
:101670005C401CC8A301040461A81C43930A240411
:10168000938647009C4314C32301F4048547D5B7D0
:1016900093F607041C410CC3B9DAC207C18781BFA6
:1016A00093F5050408C3C9D99E231307F006638682
:1016B000E60E970600009386E6542947A30104042A
:1016C0004C400CC463C5050008406D9908C099E3FF
:1016D000B28A89CDB28AB3F5E702FD1AB6958C219C
:1016E0002380BA00B3D5E70263FFE70AA147631E70
:1016F000F7001C40858B91CB58401C4863C7E7001E
:1017000093070003A38FFAFEFD1A3306564110C853
:101710004E87CA867000A2852685A13B7D5A631D2F
:10172000450B7D55B250225492540259F249624AF7
:10173000D24A424B45618280A382D50497060000BD
:101740009386464C0C40084313F805081C411105CC
:10175000630D080208C313F7150001C793E50502DE
:101760000CC04147A1FF0C4093F5F5FD0CC0B9B783
:101770009C4193E707029CC193078007A302F404EE
:10178000970600009386464975BF13F8050408C301
:10179000E30308FCC207C1837DBF97060000938660
:1017A0006646214721BFAE873DB794411C43CC49D3
:1017B00013F80608138547006306080008C39C4316
:1017C0008CC339A008C393F606049C43F5DA8EA3B4
:1017D00023280400B28A2DBF14485686CA85268560
:1017E0008299E30045F51C40898B8DE7B247484458
:1017F000E35AF5F23E853DB785465686CA8526856D
:101800008299E30065F3050A5C443247998FE3450A
:10181000FAFEE9BF014A930A94017D5BF5B793F59F
:10182000F50F2A966314C500014582801C21E38EC2
:10183000B7FE0505C5BFB3C7A5008D8B3307C5002F
:1018400081E78D4763EDC700AA87637EE508942191
:1018500085078505A38FD7FEE3EBE7FE82809376AD
:101860003500AA8789CA942185078505A38FD7FEED
:1018700093F63700C5BF9376C7FF138606FE63F065
:10188000C70683A3050083A2450083AF850003AF8D
:10189000C50083AE050103AE450103A3850183A8FE
:1018A000C5019385450223A0770003A8C5FF23A2A5
:1018B000570023A4F70123A6E70123A8D70123AAF1
:1018C000C70123AC670023AE17019387470223AEFD
:1018D00007FF75B790419107910523AEC7FEE3EB73
:1018E000D7FEE3E6E7F6828063F1A504B386C50080
:1018F000637DD5029345F6FF8147FD176393F5009D
:1019000082803387F600034807003387C7002A9791
:1019100023000701DDB73387F50014233307F500F3
:10192000850714A3E319F6FE82808147E5BFCDC188
:1019300083A7C5FF411122C406C626C21384C5FF72
:1019400063D307003E94AA84F9229387C1819C4304
:1019500099EB2322040023AE81802244B2402685E5
:101960009244410155AA637EF40014403307D40029
:101970006396E7009843DC43369718C05CC0E1BF2C
:10198000BA87D84319C3E37DE4FE94433386D70076
:10199000631F86001040B29694C33386D700E31EBF
:1019A000C7FA10435843B29694C3D8C37DB7637542
:1019B000C400B1479CC055B71040B306C4006316BD
:1019C000D70014435843B29614C058C0C0C371B76F
:1019D0008280011126CA93843500F19806CE22CC6C
:1019E0004AC84EC6A104B14763F1F404B14463E0B0
:1019F000B4042A890D229387C18198433A8431E047
:101A0000938701829C4391E781454A85CD2023A09D
:101A1000A182A6854A85E128FD5963173507B1479C
:101A20002320F9004A85CD2829A0E3D204FCB14740
:101A30001CC10145F2406244D2444249B2490561A9
:101A400082801C40858F63CE0702AD4663F6F600A8
:101A50001CC03E9404C031A05C406312870223AED8
:101A6000F1804A8555281305B40093074400619915
:101A70003307F54061D33A94898F1CC065BF5CC3BE
:101A8000CDB722874040A5BF130435007198E3030A
:101A900085FCB305A4404A859928E31D35FB41B771
:101AA00099E1B2853DB7011122CC06CE26CA4AC8BB
:101AB0004EC6328419EAA53D0149F24062444A8586
:101AC000D2444249B24905618280AE84AA89B120DC
:101AD0002689E37485FEA2854E85E53D2A8971DD60
:101AE000A6852286893BA6854E859135F9B7411199
:101AF00022C42A842E8523A401B206C60D28FD57D0
:101B00006317F500938781B29C4391C31CC0B24018
:101B10002244410182808280828083A7C5FF138591
:101B2000C7FF63D50700AA959C413E9582809387A5
:101B300041829C4391C73E9523A2A1823E8582802B
:101B40009387C1B23E9523A2A1823E858280000088
:101B500056616C6964204672616D652052656365EB
:101B6000697665643A200000253032582000000074
:101B70000D0A0000436F6D6D616E642030312044AA
:101B8000657465637465640D0A000000436F6D6DD4
:101B9000616E642030322044657465637465640D41
:101BA0000A000000436F6D6D616E64203033204485
:101BB000657465637465640D0A0000004672616DAA
:101BC00065204572726F723A20496E76616C696465
:101BD000205461696C0D0A0025733D22256422FFA3
:101BE000FFFF000074302E7478740000232D302B1A
:101BF00020000000686C4C006566674546470000A1
:101C00003031323334353637383941424344454632
:101C100000000000303132333435363738396162F4
:081C200063646566000000002A
:101C2800000000000102030401020304060708097A
:101C3800000000000000000000000000000000009C
:101C4800000000000000000000000000000000008C
:101C5800000000000000000000000000000000007C
:101C6800000000000000000000000000000000006C
:101C7800000000000000000000000000000000005C
:101C8800000000000000000000000000000000004C
:101C980002040608010000001000002000000000F7
:00000001FF
